:020000040800F2
:1000000000000120D12700088509000887090008A1
:10001000890900088B0900088D090008000000000C
:100020000000000000000000000000008F09000830
:1000300091090008000000009309000895090008D4
:10004000212800082128000821280008212800086C
:10005000212800082128000821280008212800085C
:10006000212800082128000821280008212800084C
:10007000212800082128000821280008212800083C
:10008000212800082128000821280008212800082C
:10009000212800082128000821280008212800081C
:1000A000212800082128000821280008212800080C
:1000B000212800080000000000000000212800089E
:1000C000212800080000000000000000212800088E
:1000D000000000002128000821280008000000007E
:1000E000212800082128000800000000000000006E
:1000F0000000000000000000000000000000000000
:10010000000000000000000000000000212800089E
:10011000000000000000000021280008212800083D
:10012000212800082128000821280008212800088B
:10013000212800080000000000000000000000006E
:10014000212800082128000821280008212800086B
:10015000212800082128000821280008212800085B
:10016000212800082128000821280008000000009C
:1001700021280008212800080000000000000000DD
:10018000212800082128000821280008000000007C
:100190000348044B834202D0034B03B11847704716
:1001A0007800002078000020000000000548064983
:1001B0000B1AD90F01EBA301491002D0034B03B175
:1001C00018477047780000207800002000000000E9
:1001D00010B5064C237843B9FFF7DAFF044B13B18F
:1001E0000448AFF300800123237010BD7800002085
:1001F000000000002428000808B5044B1BB1044986
:100200000448AFF30080BDE80840CFE700000000DD
:100210007C0000202428000870B50D4E0D4D761B83
:10022000B61006D00024013455F8043B9847A64286
:10023000F9D1094E094D761B02F0F4FAB61006D03A
:100240000024013455F8043B9847A642F9D170BD0B
:10025000902800089028000894280008902800089A
:10026000F0B4860746D0541E002A3CD0CAB20346DA
:1002700002E014F1FF3436D303F8012B9D07F8D1C7
:10028000032C29D9CDB245EA05250F2C45EA0545B1
:1002900033D9A4F11006360903F1200707EB06173E
:1002A00003F1100242E9045542E902551032BA4204
:1002B000F8D1721C14F00C0F03EB021204F00F06BD
:1002C00013D0331F23F003030433134442F8045BB9
:1002D0009342FBD106F003042CB1C9B21C4403F8CD
:1002E000011B9C42FBD1F0BC704734461346002CE6
:1002F000F3D1F8E714460346C2E71A462646E0E77C
:1003000053B94AB9002908BF00281CBF4FF0FF317C
:100310004FF0FF3000F06EB9ADF1080C6DE904CE7E
:1003200000F006F8DDF804E0DDE9022304B07047D0
:100330002DE9F047089D04468C46002B40F0838051
:100340008A42174647D9B2FA82F242B1C2F120007E
:1003500024FA00F09140974040EA010C94404FEAA3
:100360001748230CBCFBF8F61FFA87FE08FB16C1E2
:1003700043EA014306FB0EF1994209D9FB1806F145
:10038000FF3080F01981994240F21681023E3B44D1
:100390005B1AA4B2B3FBF8F008FB103344EA034441
:1003A00000FB0EFEA64509D93C1900F1FF3380F091
:1003B0000581A64540F2028102383C4440EA0640ED
:1003C000A4EB0E0400261DB1D4400023C5E9004370
:1003D0003146BDE8F08702B9FFDEB2FA82F2002AA8
:1003E00050D1CB1B4FEA174E1FFA87F80126B3FBFB
:1003F000FEFC210C0EFB1C3341EA034108FB0CF30D
:100400008B4207D979180CF1FF3002D28B4200F2EF
:10041000E9808446C91AA3B2B1FBFEF00EFB1011AD
:1004200043EA014408FB00F8A04507D93C1900F154
:10043000FF3302D2A04500F2D9801846A4EB08048D
:1004400040EA0C40BFE78B4209D9002D00F0B18093
:100450000026C5E9000130463146BDE8F087B3FA11
:1004600083F6002E4AD18B4202D3824200F2B8803A
:10047000841A61EB030101208C46002DA8D0C5E948
:10048000004CA5E7C2F1200320FA03F6974001FAD9
:1004900002F04FEA174ED9403043030CB1FBFEF691
:1004A0001FFA87F80EFB161143EA014306FB08F119
:1004B000994204FA02F409D9FB1806F1FF3C80F0D6
:1004C0008D80994240F28A80023E3B445B1A81B2A1
:1004D000B3FBFEF00EFB103341EA034100FB08F3CF
:1004E0008B4207D9791800F1FF3C73D28B4271D946
:1004F00002383944CB1A40EA064678E7C6F1200CA8
:1005000003FA06F422FA0CF31C4320FA0CF701FA62
:1005100006F34FEA144E21FA0CF11F433B0CB1FBDA
:10052000FEF91FFA84F80EFB191143EA014109FB99
:1005300008FA8A4502FA06F200FA06F308D96118A9
:1005400009F1FF3048D28A4546D9A9F10209214470
:10055000A1EB0A01BFB2B1FBFEF00EFB101147EA9E
:10056000014700FB08F8B84507D9E71900F1FF314A
:100570002ED2B8452CD90238274440EA0940A7EBCF
:100580000807A0FB02894F45C64649461AD317D033
:100590005DB1B3EB0E0267EB010707FA0CFCF2400A
:1005A0004CEA0202F740C5E9002700263146BDE8C3
:1005B000F0872E4628460BE70646E9E61846FDE694
:1005C0004345E5D2B8EB020E69EB04010138DFE7E1
:1005D0000846D2E760468DE78146B9E7664675E78B
:1005E00030464AE7ACF1020C394413E702383C4488
:1005F00024E700BF704700BF064B93FBF0F0064AAC
:10060000136800215962D862D06000EBD0704010AE
:10061000986370470048E8019800002008B504215D
:10062000014800F0B3FC08BD9800002008B5042183
:10063000014800F081FC08BD9800002070B588B02A
:10064000002403940494059406940794234BDA6CD5
:1006500042F00402DA64DA6C02F004020092009ABA
:10066000DA6C42F00102DA64DA6C02F00102019203
:10067000019ADA6C42F00202DA64DB6C03F00203E6
:100680000293029B224640214FF0904001F0FFFC74
:10069000134D22468121284601F0F9FC20230393C3
:1006A0000494059403A94FF0904001F029FC4023E5
:1006B0000393012604960594069403A94FF09040F5
:1006C00001F01EFC8123039304960594069403A96C
:1006D000284601F015FC08B070BD00BF00100240B4
:1006E0000004004830B58BB00024079408940994A6
:1006F0000094019402940394049405940694124D7A
:100700004FF080432B606C60AC60104BEB602C6151
:10071000AC61284600F00EFB0794099407A928460F
:1007200000F06CFC602300934EF6E36301930294A7
:10073000049404226946284600F052FB284600F043
:1007400058F90BB030BD00BF98000020C6DD010095
:1007500008B50948094B03604FF4E13343600023B7
:100760008360C36003610C2242618361C3610362E1
:10077000436201F0D7FF08BDD800002000440040CC
:1007800008B520214FF0904001F07AFC012810D1EB
:10079000104B1B786BB9104A1378013313700D4B53
:1007A00001221A700C4B1B7813F0010F10D101209D
:1007B00008BD20214FF0904001F062FC0028F1D1EB
:1007C000044B1B78002BEDD0024B00221A70E9E796
:1007D0000020EDE7950000209400002010B5FFF701
:1007E000CFFF0028FBD1384A13780133137000245F
:1007F00000E00134172C16D8FFF7C2FF98B1334B35
:1008000033F81400FFF7F8FE4FF4FA7000F078FCAC
:10081000FFF704FF0A2000F073FCFFF707FF172C17
:10082000E7D10024E5E7FFF7ABFF0028FBD1264A1C
:10083000137801331370002400E001341D2C16D806
:10084000FFF79EFF98B1224B33F81400FFF7D4FE58
:100850004FF4FA7000F054FCFFF7E0FE0A2000F0BD
:100860004FFCFFF7E3FE1D2CE7D10024E5E7FFF77F
:1008700087FF0028FBD1144A13780133137000243A
:1008800000E001341D2C15D8FFF77AFF90B1104B12
:1008900033F81400FFF7B0FE642000F031FCFFF7DE
:1008A000BDFE0A2000F02CFCFFF7C0FE1D2CE8D195
:1008B0000024E6E7FFF7B2FE41F2883000F020FCAA
:1008C000FFF7B4FE10BD00BF940000200000002020
:1008D0003000002070B5ACB0442200211BA8FFF707
:1008E000BFFC002416941794189419941A94542257
:1008F000214601A8FFF7B4FC01F0CEFB194AD2F85B
:10090000903023F01803C2F8903014231B93012574
:100910001D952195229460232393022625962695E2
:10092000279510232893072329932A962B961BA8F3
:1009300000F09CFC0F23169303231793189419942B
:100940001A94294616A800F0D1FF01960A9401A82E
:1009500001F05AF94FF4007001F0AEFB01F0C8FA53
:100960002CB070BD0010024008B500F0A7FBFFF7E7
:10097000B1FFFFF763FEFFF7B5FEFFF7E9FEFFF7F4
:100980002DFFFCE77047FEE7FEE7FEE7FEE7704756
:100990007047704708B500F0A1FB08BD82B00A4B54
:1009A0001A6E42F001021A661A6E02F001020092FB
:1009B000009A9A6D42F080529A659B6D03F08053C5
:1009C0000193019B02B07047001002400368B3F12D
:1009D000804F00D0704782B003F504339A6D42F027
:1009E00001029A659B6D03F001030193019B02B024
:1009F000704700B587B000230193029303930493DB
:100A000005930368B3F1804F02D007B05DF804FB93
:100A100003F50433DA6C42F00102DA64DB6C03F0B4
:100A200001030093009B022301930293002303938D
:100A300004930123059301A94FF0904001F060FA5F
:100A4000E3E7000070B588B0002303930493059397
:100A50000693079302681A4B9A4201D008B070BD02
:100A600003F5E6339A6D42F400329A659A6D02F40A
:100A700000320192019ADA6C42F00102DA64DB6C16
:100A800003F001030293029B0423039302260496BE
:100A900000250595032406940723079303A94FF027
:100AA000904001F02DFA4FF400430393049605950E
:100AB0000694079403A94FF0904001F021FACDE786
:100AC0000044004030B4036A23F001030362036A68
:100AD0004468826922F4803222F073020D682A434E
:100AE00023F002038D682B43144DA84207D005F56F
:100AF000A055A84203D005F58065A84205D123F092
:100B00000803CD682B4323F004030C4DA84207D003
:100B100005F5A055A84203D005F58065A84205D18A
:100B200024F440754C692C438D692C4344608261E8
:100B30004A684263036230BC704700BF002C01402A
:100B400030B4036A23F480730362036A4468C269A1
:100B500022F4803222F073020D682A4323F40073DA
:100B60008D6843EA0523124DA84219D0104DA842C2
:100B700007D005F5A055A84203D005F58065A84229
:100B800007D124F440544D6944EA05148D6944EAC0
:100B900005144460C2614A68C263036230BC704796
:100BA00023F40063CD6843EA052323F48063DDE783
:100BB000002C014030B4036A23F480530362026ABC
:100BC0004468C36923F0807323F4E6430D6843EA65
:100BD000052322F400528D6842EA05320B4DA842EB
:100BE00007D005F5A055A84203D005F58065A842B9
:100BF00004D124F480444D6944EA85144460C361FF
:100C00004B680364026230BC704700BF002C014097
:100C100030B4036A23F480330362036A4468426D8C
:100C200022F4803222F070020D682A4323F400334C
:100C30008D6843EA05430B4DA84207D005F5A05542
:100C4000A84203D005F58065A84204D124F480347D
:100C50004D6944EA0524446042654A68826503623E
:100C600030BC7047002C014030B4036A23F4801379
:100C70000362026A4468436D23F0807323F4E04307
:100C80000D6843EA052322F400128D6842EA0552FA
:100C90000B4DA84207D005F5A055A84203D005F595
:100CA0008065A84204D124F480244D6944EA852457
:100CB000446043654B68C365026230BC704700BF47
:100CC000002C014003681A4A904202D0B0F1804FD4
:100CD00003D123F070034A681343154A90420AD0A7
:100CE000B0F1804F07D002F5A052904203D002F538
:100CF0008062904203D123F44073CA68134323F007
:100D000080034A69134303608B68C3620B68836284
:100D1000074B984207D003F5A053984203D003F540
:100D20008063984201D10B690363012343617047DB
:100D3000002C0140B0B110B5044690F83D3063B1CD
:100D4000022384F83D30214651F8040BFFF7BAFF27
:100D5000012384F83D30002010BD80F83C30FFF7BF
:100D600035FEEDE70120704730B4036A23F010032D
:100D70000362036A4468826922F0807222F4E642C8
:100D80000D6842EA052223F020038D6843EA05132B
:100D9000124DA84219D0114DA84207D005F5A05513
:100DA000A84203D005F58065A84207D124F4406429
:100DB0004D6944EA85048D6944EA85044460826192
:100DC0004A688263036230BC704723F08003CD68B9
:100DD00043EA051323F04003DDE700BF002C014088
:100DE00038B590F83C30012B00F0928004460D4657
:100DF000012380F83C30022380F83D30142A1ED8AD
:100E0000DFE802F00B1D1D1D241D1D1D381D1D1DBD
:100E10004B1D1D1D5F1D1D1D72000068FFF752FE5A
:100E20002268936943F0080393612268936923F071
:100E3000040393612268936929690B439361012339
:100E400084F83D30002084F83C0038BD0068FFF78E
:100E50008BFF2268936943F400639361226893696E
:100E600023F48063936122689369296943EA01232B
:100E70009361E4E70068FFF763FE2268D36943F0FB
:100E80000803D3612268D36923F00403D361226885
:100E9000D36929690B43D361D1E70068FFF78AFE64
:100EA0002268D36943F40063D3612268D36923F4D1
:100EB0008063D3612268D369296943EA0123D3613E
:100EC000BDE70068FFF7A4FE2268536D43F00803F6
:100ED00053652268536D23F0040353652268536DF4
:100EE00029690B435365AAE70068FFF7BDFE226836
:100EF000536D43F4006353652268536D23F480639C
:100F000053652268536D296943EA0123536596E7C7
:100F100002209AE710B401F01F01012303FA01F443
:100F2000036A23EA04030362036A02FA01F10B4332
:100F300003625DF8044B704710B504460122006857
:100F4000FFF7E8FF23680F4A934207D002F5A0524B
:100F5000934203D002F58062934203D15A6C42F46B
:100F600000425A6422689168074B0B40062B06D05A
:100F7000B3F5803F03D0136843F0010313600020F2
:100F800010BD00BF002C01400700010010B5044651
:100F900000220068FFF7BEFF2368174A93421BD068
:100FA00002F5A052934217D002F58062934213D00B
:100FB0002368196A41F21112114208D1196A40F2EC
:100FC0004442114203D11A6822F001021A6001233F
:100FD00084F83D30002010BD196A41F2111211420F
:100FE000E6D1196A40F244421142E1D15A6C22F42E
:100FF00000425A64DCE700BF002C014090F83C300E
:10100000012B2FD030B4012380F83C30022380F82C
:101010003D30026853689568134CA2421DD023F0FE
:1010200070030C682343536003680F4A934206D051
:10103000B3F1804F03D002F5A052934204D125F0C2
:1010400080058A6815439D60012380F83D300023A8
:1010500080F83C30184630BC704723F470034C686D
:101060002343DCE702207047002C0140104B1B6833
:101070000BB90120704710B504464FF47A70B0FBED
:10108000F3F30C4A1068B0FBF3F001F0A3F868B971
:101090000F2C01D901200AE0002221464FF0FF3039
:1010A00001F064F8044B1C60002000E0012010BD3A
:1010B0006C000020740000207000002010B5032098
:1010C00001F042F80020FFF7D1FF10B101242046C3
:1010D00010BD0446FFF762FCF9E70000034A1368FD
:1010E000034909680B441360704700BF5801002092
:1010F0006C000020014B1868704700BF58010020A9
:1011000038B50446FFF7F6FF0546B4F1FF3F02D0BD
:10111000044B1B681C44FFF7EDFF401BA042FAD3B1
:1011200038BD00BF6C00002030B583B00446204BB2
:101130009B6D13F0805F0BD000F0B6FFB0F5007F21
:1011400017D0802C1FD82DD0702C2DD000211BE063
:10115000174DAB6D43F08053AB65AB6D03F080531F
:101160000193019B00F0A0FFAB6D23F08053AB65B2
:10117000E4E7802C03D9A02C03D9022104E000214C
:1011800002E0012100E003210A4A136823F007036B
:101190000B431360136803F007038B4206D1002052
:1011A00003B030BD0221EFE70121EDE70120F7E7B1
:1011B0000010024000200240284A9368D26802F0E2
:1011C000030213F00C030AD00C2B06D0042B1FD003
:1011D000082B20D00020024610E0012AF6D11F4A39
:1011E000126812F0080F0CD11C4AD2F89420C2F3F6
:1011F00003221B4951F8222043B100200C2B0DD0B3
:101200007047164A1268C2F30312F2E71046F5E778
:1012100014480022F2E714480022EFE70F4BDB6886
:1012200003F00303022B16D0032B00D10E4A0B4B05
:10123000D868C0F302100130D968C1F3062102FB5F
:1012400001F2B2FBF0F2D868C0F341600130400017
:10125000B2FBF0F0D4E7034AE9E700BF0010024018
:10126000582800080024F40000127A00002800F03A
:101270002783F0B583B00446AE4B9D6805F00C059E
:10128000DE6806F00306036813F0100F5AD0E5B1CC
:101290000C2D18D0A369002B00F0BB80A54A136861
:1012A00043F001031360FFF725FF0746A14B1B68BE
:1012B00013F0020F40F09A80FFF71CFFC01B0228BA
:1012C000F4D9032007E3012EE4D19A4B1B6813F0F5
:1012D000020F03D0A369002B00F0F482206A954B23
:1012E0001B6813F0080F5BD0924B1B6803F0F003F0
:1012F00098425CD88F4B1A6842F008021A601A684C
:1013000022F0F002216A0A431A605A6822F47F42EE
:10131000E16942EA01225A60002D60D0FFF74CFFDC
:10132000844B9B68C3F30313834AD35C03F01F030E
:10133000D840824B1860824B1868FFF797FE002850
:1013400040F0C982236813F0010F00F08180082D5E
:1013500075D00C2D71D06368B3F5803F00F0978095
:10136000B3F5A02F00F09980724B1A6822F48032F6
:101370001A601A6822F480221A606368002B00F059
:101380009980FFF7B7FE07466A4B1B6813F4003FCE
:101390005ED1FFF7AFFEC01B6428F5D903209AE2A7
:1013A000644BD3F894301B0903F0F003A0E7FFF778
:1013B000BBFE002840F088825E4B1A6842F00802AB
:1013C0001A601A6822F0F002216A0A431A605A6809
:1013D00022F47F42E16942EA01225A609EE7206AD4
:1013E000FFF7A2FE002899D0012074E2514B1A6841
:1013F00042F008021A601A6822F0F002216A0A43D9
:101400001A605A6822F47F42E16942EA01225A6076
:1014100098E7484A136823F001031360FFF76AFE58
:101420000746444B1B6813F0020F8BD0FFF762FE98
:10143000C01B0228F5D903204DE2032E8BD13D4B72
:101440001B6813F4003F03D06368002B00F03E825A
:10145000236813F0020F4FD0042D3CD00C2D38D050
:10146000E368002B77D0334A136843F4807313602A
:10147000FFF740FE06462F4B1B6813F4806F61D1C7
:10148000FFF738FE801B0228F5D9032023E2294A02
:10149000136843F4803313606FE703F18043A3F5CF
:1014A0003C331A6842F480221A601A6842F480328F
:1014B0001A6062E7FFF71EFE07461E4B1B6813F417
:1014C000003FC5D0FFF716FEC01B6428F5D90320E6
:1014D00001E2022EC4D1174B1B6813F4806F03D0B6
:1014E000E368002B00F0F481124A536823F0F853AC
:1014F000216943EA01635360236813F0080F55D054
:101500006369002B3BD00B4AD2F8943043F00103BF
:10151000C2F89430FFF7EEFD0646064BD3F8943040
:1015200013F0020F42D1FFF7E5FD801B0228F4D92A
:101530000320D0E100100240402800087400002081
:1015400070000020B44A536823F0F853216943EA3D
:1015500001635360D0E7B04A136823F480731360CB
:10156000FFF7C8FD0646AC4B1B6813F4806FC3D071
:10157000FFF7C0FD801B0228F5D90320ABE1A64A86
:10158000D2F8943023F00103C2F89430FFF7B2FD93
:101590000646A14BD3F8943013F0020F06D0FFF7A4
:1015A000A9FD801B0228F4D9032094E1236813F0DD
:1015B000040F7AD0984B9B6D13F0805F36D1964B19
:1015C0009A6D42F080529A659B6D03F080530193AF
:1015D000019B0126914B1B6813F4807F28D0A368E0
:1015E000012B39D0052B3FD08B4BD3F8902022F024
:1015F0000102C3F89020D3F8902022F00402C3F82F
:101600009020A368002B3DD0FFF774FD0746824B66
:10161000D3F8903013F0020F46D1FFF76BFDC01BDB
:1016200041F288339842F2D9032054E10026D1E7F1
:101630007A4A136843F480731360FFF75BFD074633
:10164000764B1B6813F4807FC9D1FFF753FDC01B95
:101650000228F5D903203EE16F4AD2F8903043F0DA
:101660000103C2F89030CCE76B4BD3F8902042F0E6
:101670000402C3F89020D3F8902042F00102C3F88E
:101680009020BEE7FFF736FD0746634BD3F8903056
:1016900013F0020F08D0FFF72DFDC01B41F2883375
:1016A0009842F2D9032016E1E6B9236813F0200F1F
:1016B00035D0636AE3B1584AD2F8983043F0010359
:1016C000C2F89830FFF716FD0646534BD3F8983012
:1016D00013F0020F23D1FFF70DFD801B0228F4D970
:1016E0000320F8E04C4A936D23F080539365DCE7C8
:1016F000494AD2F8983023F00103C2F89830FFF736
:10170000F9FC0646444BD3F8983013F0020F06D08C
:10171000FFF7F0FC801B0228F4D90320DBE0A36A6A
:10172000002B00F0D780022B27D00C2D00F0D780A3
:10173000394B1A6822F080721A601B6813F0006F30
:1017400004D1354AD36823F00303D360324AD36807
:1017500023F0887323F48033D360FFF7CBFC044677
:101760002D4B1B6813F0007F00F0A880FFF7C2FC30
:10177000001B0228F4D90320ADE0274BDB6803F0FF
:101780000301E26A914209D00C2D00F0A680224BA1
:101790001B6813F0806F2BD001209CE003F07002D7
:1017A000216B0139B2EB011FEED103F4FE42616BF4
:1017B000B2EB012FE8D103F07842A16BB2EBC16F1D
:1017C000E2D103F4C001E26B5208013AB1EB425F8F
:1017D000DAD103F0C063226C5208013AB3EB426FD6
:1017E000D2D10D4B1B6813F0007F4DD0002072E06A
:1017F000094A136823F080731360FFF77BFC0546EA
:10180000054B1B6813F0007F0AD0FFF773FC401BE9
:101810000228F5D903205EE000100240007000406D
:10182000304AD36830491940E36A206B013843EAF3
:101830000013606B43EA0023E06B4008013843EA81
:101840004053206C4008013843EA4063A06B43EAF0
:10185000C0630B43D360136843F080731360D36895
:1018600043F08073D360FFF745FC04461D4B1B68B3
:1018700013F0007F06D1FFF73DFC001B0228F5D9CD
:10188000032028E0002026E0164B1A6842F0807200
:101890001A60DA6842F08072DA60FFF72BFC0446C7
:1018A000104B1B6813F0007F06D1FFF723FC031BCE
:1018B000022BF5D903200EE000200CE000200AE006
:1018C00001207047012006E0012004E0012002E031
:1018D000012000E0002003B0F0BD0120FBE7012063
:1018E000F9E700BF001002408C809D01002800F045
:1018F000988070B50C4605464E4B1B6803F00703F5
:101900008B420BD24B4A136823F007030B4313603F
:10191000136803F007038B4240F085802B6813F0B7
:10192000010F39D06B68032B09D0022B26D063BB83
:10193000414A126812F0020F06D1012070E03E4ABF
:10194000126812F0007F70D03B498A6822F00302CF
:1019500013438B60FFF7CEFB0646374B9B6803F0C3
:101960000C036A68B3EB820F16D0FFF7C3FB801B32
:1019700041F288339842F0D9032051E02E4A126890
:1019800012F4003FE0D101204AE02B4A126812F421
:10199000806FD9D1012043E02B6813F0020F06D0ED
:1019A000254A936823F0F003A9680B439360214B09
:1019B0001B6803F00703A3420AD91E4A136823F0E9
:1019C000070323431360136803F00703A3422ED1D8
:1019D0002B6813F0040F06D0174A936823F4E063D2
:1019E000E9680B4393602B6813F0080F07D0124A85
:1019F000936823F46053296943EAC1039360FFF7B6
:101A0000DBFB0D4B9B68C3F303130C4AD35C03F061
:101A10001F03D8400A4B18600A4B1868FFF726FBD3
:101A200070BD012070470120FAE70120F8E701208E
:101A3000F6E700BF002002400010024040280008E6
:101A40007400002070000020014B1868704700BF30
:101A50007400002008B5FFF7F7FF054B9B68C3F340
:101A60000223044AD35C03F01F03D84008BD00BF23
:101A7000001002405028000808B5FFF7E5FF054BAD
:101A80009B68C3F3C223044AD35C03F01F03D8400E
:101A900008BD00BF0010024050280008F8B50446F9
:101AA0000F46584BDB6813F0030F18D0554BDB681B
:101AB00003F003030268934202D001252846F8BDD3
:101AC000002A00F09D804F4BDB68C3F30213013303
:101AD0004268934201D00125F0E7002509E0036840
:101AE000022B56D0032B5BD0012B41D00125002DBA
:101AF000E4D1444A136823F080631360FFF7FAFAD5
:101B00000646404B1B6813F0006F05D0FFF7F2FA52
:101B1000831B022BF5D90325002DCFD1002F4DD1EA
:101B200038490B6923F0784323F4FE43A068E26848
:101B3000D20642EA002213430B61324A136843F093
:101B400080631360FFF7D6FA06462E4B1B6813F02E
:101B5000006F05D1FFF7CEFA831B022BF5D90325C1
:101B6000002DABD1274A1369A1690B431361A5E787
:101B7000244A126812F0020F1ED02248C26822F0D6
:101B800073026168013943EA01131343C3600025FE
:101B9000ADE71C4A126812F4806FEED10125A6E76A
:101BA000184A126812F4003FE7D1164A126812F47C
:101BB000802FE2D101259AE7012598E7012F0FD068
:101BC0001048026922F0C06222F4FE42A1686369F3
:101BD0005B08013B5B0643EA012313430361ACE767
:101BE0000848026922F4C00222F4FE42A168236977
:101BF0005B08013B5B0543EA0123134303619CE758
:101C000001255BE7001002402DE9F04182B0044657
:101C1000036813F4006F25D0C36BB3F5000F06D033
:101C2000B3F5400F12D04BB1012637461CE0AE4A47
:101C3000D36843F48033D360002708E000210430E8
:101C4000FFF72CFF074610B106460DE00027A64A15
:101C5000D2F8883023F44003E16B0B43C2F888309C
:101C6000002601E000263746236813F4003F6BD0BE
:101C70009D4B9B6D13F0805F4CD19B4B9A6D42F056
:101C800080529A659B6D03F080530193019B4FF046
:101C90000108964A136843F480731360FFF72AFA29
:101CA0000546924B1B6813F4807F05D1FFF722FA9B
:101CB000401B0228F5D90327002F40D18A4BD3F8C7
:101CC000903013F4407315D0226D9A4212D0864A98
:101CD000D2F8903023F44073D2F8901041F4803160
:101CE000C2F89010D2F8901021F48031C2F8901010
:101CF000C2F8903013F0010F0FD1002F40F0C980CF
:101D0000794AD2F8903023F44073216D0B43C2F826
:101D1000903015E04FF00008BBE7FFF7EBF9054600
:101D2000714BD3F8903013F0020FE6D1FFF7E2F9D0
:101D3000401B41F288339842F2D90327DDE73E4643
:101D4000B8F1000F40F0A780236813F0010F08D00E
:101D5000654AD2F8883023F00303216A0B43C2F8A6
:101D60008830236813F0020F08D05F4AD2F8883019
:101D700023F00C03616A0B43C2F88830236813F028
:101D8000200F08D0584AD2F8883023F44063A16A63
:101D90000B43C2F88830236813F4007F08D0524AFE
:101DA000D2F8883023F44023616B0B43C2F88830AB
:101DB000236813F4806F08D04B4AD2F8883023F49C
:101DC0004013A16B0B43C2F88830236813F0400F17
:101DD00008D0454AD2F8883023F44053E16A0B43D7
:101DE000C2F88830236813F4807F08D03E4AD2F8C6
:101DF000883023F44033216B0B43C2F888302368CA
:101E000013F4005F0FD0384AD2F8883023F04063D3
:101E1000216C0B43C2F88830236CB3F1006F40D0C3
:101E2000B3F1806F42D0236813F4802F0FD02E4A75
:101E3000D2F8883023F04063616C0B43C2F88830DD
:101E4000636CB3F1006F39D0B3F1806F3BD023687E
:101E500013F4804F0CD0244AD2F8883023F040533A
:101E6000A16C0B43C2F88830A36CB3F1805F32D011
:101E7000236813F4004F08D01B4AD2F8883023F0AF
:101E80008043E16C0B43C2F88830304602B0BDE8B5
:101E9000F0813E4654E7144A936D23F080539365D6
:101EA00052E7D36843F48013D360BCE70121201DBF
:101EB000FFF7F4FD0028B6D00646B4E7D36843F434
:101EC0008013D360C3E70121201DFFF7E7FD002841
:101ED000BDD00646BBE70221201DFFF7DFFD00282D
:101EE000C6D00646C4E700BF0010024000700040A4
:101EF000024A136843F00403136070470010024065
:101F0000F0B583B0002397E086685F000325BD40ED
:101F100026EA0506CD68BD4035438560466826EA59
:101F200004064D68C5F300149C4034434460C76800
:101F30005E000325B540EC4327EA05078D68B540F0
:101F40003D43C5604D68022D01D0122D13D1DF082D
:101F5000083750F827E003F007054FEA850C0F25F6
:101F600005FA0CF52EEA050E0D6905FA0CF545EAA1
:101F70000E0540F82750056825404C6804F003041E
:101F8000B4402C4304604C6814F0805F53D0384C4C
:101F9000256E45F001052566246E04F001040194C8
:101FA000019C9D08AE1C334C54F8267003F00304CA
:101FB000A6000F24B44027EA0407B0F1904F51D097
:101FC0002D4CA04250D004F58064A04248D0072494
:101FD000B4403C430235274E46F82540274C25683F
:101FE000D44325EA02064F6817F4803F01D042EA45
:101FF0000506224D2E606D6804EA05064F6817F449
:10200000003F01D042EA05061C4D6E60AD6804EA4F
:1020100005064F6817F4801F01D042EA0506174DE8
:10202000AE60ED682C404E6816F4001F01D042EA05
:102030000504124AD46001330A6832FA03F415D059
:1020400001249C402240F6D04D686E1E012E7FF682
:102050005BAF112D3FF458AF122D7FF468AF53E7FB
:102060000224B5E70024B3E70124B1E703B0F0BDD3
:10207000001002400000014000040048000401403C
:102080000369194201D001207047002070470AB14E
:102090008161704781627047024A136843F480731C
:1020A0001360704700700040024B186800F4C06075
:1020B000704700BF00700040B0F5007F0FD01F4B8D
:1020C0001B6803F4C063B3F5806F34D01B4A1368F8
:1020D00023F4C06343F48063136000207047174B00
:1020E0001B6803F4C063B3F5007F20D0134A136864
:1020F00023F4C06343F400731360114B1A68322356
:1021000003FB02F30F4AA2FB03239B0C013300E005
:10211000013B0A4A526912F4806F01D0002BF7D1BB
:10212000064B5B6913F4806F03D1002070470020D9
:102130007047032070470020704700BF00700040C8
:102140007400002083DE1B43074AD36823F4E06356
:102150001B041B0C000200F4E060034343F0BF6368
:1021600043F40033D360704700ED00E030B4174B08
:10217000DB68C3F30223C3F10704042C28BF042443
:102180001D1D062D18D9033B4FF0FF3505FA04F449
:1021900021EA0401994005FA03F322EA03031943F3
:1021A00000280BDB0901C9B200F1604000F5614075
:1021B00080F8001330BC70470023E5E700F00F0003
:1021C0000901C9B2024B1954F4E700BF00ED00E069
:1021D00014ED00E00138B0F1807F0AD2064B586060
:1021E000064AF02182F823100020986007221A6026
:1021F00070470120704700BF10E000E000ED00E0F4
:10220000F8B50446016883680269134342691343C1
:10221000C269134308689F4A024013430B60226857
:10222000536823F44053E1680B435360A16922686B
:10223000994B9A4201D0236A1943936823F430637F
:102240000B4393602368954A93421CD0944A93426F
:102250002DD0914A934243D010258F4A934260D0AB
:10226000E369B3F5004F00F0C680082D00F25D81F0
:10227000DFE815F01E0133013D015B0148015B0100
:102280005B015B01520102F55842D2F8882002F04E
:102290000302032A09D8DFE802F002043806012508
:1022A000DBE70425D9E70825D7E71025D5E702F5B0
:1022B000E632D2F8882002F00C020C2A0ED8DFE8B1
:1022C00002F0070D0D0D090D0D0D260D0D0D0B0066
:1022D0000025C2E70425C0E70825BEE71025BCE7B6
:1022E00002F5C832D2F8882002F44062B2F5006FDD
:1022F0000FD005D87AB1B2F5806F0ED10425ACE7C6
:10230000B2F5406F0BD10825A7E70225A5E7022506
:10231000A3E70225A1E700259FE710259DE71025EB
:102320009BE7082D00F20481DFE815F00C000201A4
:1023300027000201240002010201020109004FF4FA
:10234000004004E0FFF786FB002800F0F38062689D
:1023500002EB4203834200F2EF80B0EB023F00F257
:10236000ED80082D44D8DFE805F00A431F432A43D7
:1023700043433800FEF720FFE6E74A48E7E7FFF768
:1023800069FB0023070E060262685008301847F107
:102390000001FDF7B5FFA0F54072434B9A4200F2F1
:1023A000CF802368D86093E0560800252B463F482D
:1023B0000021801941F10001FDF7A2FFEBE7FEF7D4
:1023C000FBFE0025070E0602626850082B463018F7
:1023D00047F10001FDF794FFDDE7500800252B468B
:1023E00010F500002CBF01210021FDF789FFD2E785
:1023F00001250020CFE7082D49D8DFE805F0051EAC
:102400002948344848483F00FFF724FB62685308D6
:1024100003EB4003B3FBF2F39BB2A3F110014FF6C1
:10242000EF72914200F28E809AB222F00F02C3F353
:10243000420313432268D3604AE0FFF71DFB626842
:10244000530803EB4003B3FBF2F39BB20025E4E730
:102450006268530803F1F47303F59043B3FBF2F39E
:102460009BB20025D9E7FEF7A7FE6268530803EB8D
:102470004003B3FBF2F39BB20025CEE7626853083A
:1024800003F58033B3FBF2F39BB20025C5E70125CA
:102490000023C2E7F369FFEF0080004000380140ED
:1024A000004400400024F400FFFC0F00000024F46E
:1024B000FFF7D0FA626800EB5203B3FBF2F39BB272
:1024C000A3F110014FF6EF7291423DD82268D3601C
:1024D0000023236663662846F8BDFFF7CDFA6268DD
:1024E00000EB5203B3FBF2F39BB20025E8E762680E
:1024F000530803F5740303F51053B3FBF2F39BB2D7
:102500000025DDE7FEF758FE626800EB5203B3FBDF
:10251000F2F39BB20025D3E76268530803F500434A
:10252000B3FBF2F39BB20025CAE701250023C7E7FE
:102530000125CDE70025CBE70125C9E70125C7E740
:102540000125C5E70125C3E70125C1E7436A13F06B
:10255000010F06D00268536823F40033816A0B43ED
:102560005360436A13F0020F06D00268536823F4E5
:102570008033C16A0B435360436A13F0040F06D0E3
:102580000268536823F48023016B0B435360436A52
:1025900013F0080F06D00268536823F40043416B20
:1025A0000B435360436A13F0100F06D00268936820
:1025B00023F48053816B0B439360436A13F0200F25
:1025C00006D00268936823F40053C16B0B439360F9
:1025D000436A13F0400F0AD00268536823F4801353
:1025E000016C0B435360036CB3F5801F0BD0436A3F
:1025F00013F0800F06D00268536823F40023816C27
:102600000B43536070470268536823F4C003416C66
:102610000B435360EBE72DE9F84305460F4616469A
:102620009946DDF820802C68E46937EA04030CBF82
:1026300001240024B4423CD1B8F1FF3FF3D0FEF7AF
:1026400059FDA0EB0900404521D8B8F1000F1ED07C
:102650002B681A6812F0040FE5D0DA6912F4006FE3
:10266000E1D04FF400621A622A68136823F4D07331
:1026700013602A68936823F00103936020236B673B
:10268000AB67EB67002385F87030032012E02A68FF
:10269000136823F4D07313602A68936823F001034E
:1026A000936020236B67AB67002385F870300320AD
:1026B00000E00020BDE8F88330B583B00446002375
:1026C000C367FEF717FD054623681B6813F0080F64
:1026D0000CD123681B6813F0040F15D12023636706
:1026E000A367002084F8700003B030BD6FF07E4314
:1026F0000093034600224FF400112046FFF78BFFA2
:102700000028E6D00320EFE76FF07E4300932B46CE
:1027100000224FF480012046FFF77DFF0028DDD026
:102720000320E1E768B310B50446436F03B32423E5
:1027300063672268136823F0010313602046FFF7E4
:102740005FFD012813D0636ABBB92268536823F484
:10275000904353602268936823F02A0393602268B1
:10276000136843F0010313602046FFF7A5FF10BD77
:1027700080F87030FEF766F9D9E72046FFF7E6FEED
:10278000E3E70120704700000F49D1F8883043F497
:102790007003C1F888300D4B1A6842F001021A60CC
:1027A000002098601A6822F0A85222F410221A60C1
:1027B0004FF48052DA601A6822F480221A6098611D
:1027C0004FF000638B60704700ED00E000100240A6
:1027D000DFF834D0002103E00C4B5B584350043148
:1027E0000B480C4B42189A42F6D30B4A02E00023E6
:1027F00042F8043B094B9A42F9D3FFF7C5FFFDF7B6
:102800000BFDFEF7B1F8FEE700000120A02800084C
:102810000000002078000020780000205C010020EB
:10282000FEE70000F8B500BFF8BC08BC9E46704744
:10283000F8B500BFF8BC08BC9E4670470000000019
:102840000000000000000000010203040607080960
:102850000000000001020304A0860100400D0300F7
:10286000801A060000350C0040420F0080841E00D4
:1028700000093D0000127A000024F40000366E01C9
:082880000048E801006CDC02D5
:08288800A8DAFF7F0100000047
:08289000F9010008000000003E
:08289800D1010008000000005E
:1028A00088018801B801B8018801880149018801BF
:1028B000880149014901250188018801B801B80151
:1028C0008801880149018801490125014901050163
:1028D0000501050105010501250125012501490124
:1028E0004901490149015D015D015D015D01880109
:1028F00088015D015D015D015D015D015D015D01BD
:102900005D015D015D015D015D0188010100000067
:082910001000000000093D0069
:04000005080027D1F7
:00000001FF
